{
  "_format": "hh-sol-artifact-1",
  "contractName": "Donation",
  "sourceName": "contracts/Donation.sol",
  "abi": [
    {
      "inputs": [],
      "stateMutability": "nonpayable",
      "type": "constructor"
    },
    {
      "inputs": [],
      "name": "getDonations",
      "outputs": [
        {
          "components": [
            {
              "internalType": "address",
              "name": "donor",
              "type": "address"
            },
            {
              "internalType": "uint256",
              "name": "amount",
              "type": "uint256"
            }
          ],
          "internalType": "struct Donation.Donation[]",
          "name": "",
          "type": "tuple[]"
        }
      ],
      "stateMutability": "view",
      "type": "function"
    },
    {
      "inputs": [],
      "name": "getTotalDonations",
      "outputs": [
        {
          "internalType": "uint256",
          "name": "",
          "type": "uint256"
        }
      ],
      "stateMutability": "view",
      "type": "function"
    },
    {
      "stateMutability": "payable",
      "type": "receive"
    }
  ],
  "bytecode": "0x608060405234801561001057600080fd5b50336000806101000a81548173ffffffffffffffffffffffffffffffffffffffff021916908373ffffffffffffffffffffffffffffffffffffffff1602179055506104ae806100606000396000f3fe60806040526004361061002d5760003560e01c8063777c658f14610172578063e25f84161461019d5761016d565b3661016d5760405180604001604052803373ffffffffffffffffffffffffffffffffffffffff16815260200134815250600260008201518160000160006101000a81548173ffffffffffffffffffffffffffffffffffffffff021916908373ffffffffffffffffffffffffffffffffffffffff160217905550602082015181600101559050506004600290806001815401808255809150506001900390600052602060002090600202016000909190919091506000820160009054906101000a900473ffffffffffffffffffffffffffffffffffffffff168160000160006101000a81548173ffffffffffffffffffffffffffffffffffffffff021916908373ffffffffffffffffffffffffffffffffffffffff160217905550600182015481600101555050346001600082825461016591906102ca565b925050819055005b600080fd5b34801561017e57600080fd5b506101876101c8565b604051610194919061030d565b60405180910390f35b3480156101a957600080fd5b506101b26101d2565b6040516101bf9190610456565b60405180910390f35b6000600154905090565b60606004805480602002602001604051908101604052809291908181526020016000905b8282101561028857838290600052602060002090600202016040518060400160405290816000820160009054906101000a900473ffffffffffffffffffffffffffffffffffffffff1673ffffffffffffffffffffffffffffffffffffffff1673ffffffffffffffffffffffffffffffffffffffff168152602001600182015481525050815260200190600101906101f6565b50505050905090565b6000819050919050565b7f4e487b7100000000000000000000000000000000000000000000000000000000600052601160045260246000fd5b60006102d582610291565b91506102e083610291565b92508282019050808211156102f8576102f761029b565b5b92915050565b61030781610291565b82525050565b600060208201905061032260008301846102fe565b92915050565b600081519050919050565b600082825260208201905092915050565b6000819050602082019050919050565b600073ffffffffffffffffffffffffffffffffffffffff82169050919050565b600061037f82610354565b9050919050565b61038f81610374565b82525050565b61039e81610291565b82525050565b6040820160008201516103ba6000850182610386565b5060208201516103cd6020850182610395565b50505050565b60006103df83836103a4565b60408301905092915050565b6000602082019050919050565b600061040382610328565b61040d8185610333565b935061041883610344565b8060005b8381101561044957815161043088826103d3565b975061043b836103eb565b92505060018101905061041c565b5085935050505092915050565b6000602082019050818103600083015261047081846103f8565b90509291505056fea2646970667358221220af87a5ffc0fdb94bc268a427299622c08480b824ffd29290f05a6688fd5557ee64736f6c63430008110033",
  "linkReferences": {},
  "deployedLinkReferences": {}
}